{
  "_format": "hh-sol-artifact-1",
  "contractName": "AuctionManager",
  "sourceName": "contracts/AuctionManager.sol",
  "abi": [
    {
      "inputs": [
        {
          "internalType": "uint256",
          "name": "",
          "type": "uint256"
        }
      ],
      "name": "auctions",
      "outputs": [
        {
          "internalType": "contract Auction",
          "name": "",
          "type": "address"
        }
      ],
      "stateMutability": "view",
      "type": "function"
    },
    {
      "inputs": [
        {
          "internalType": "uint256",
          "name": "_endTime",
          "type": "uint256"
        },
        {
          "internalType": "uint256",
          "name": "_minIncrement",
          "type": "uint256"
        },
        {
          "internalType": "uint256",
          "name": "_directBuyPrice",
          "type": "uint256"
        },
        {
          "internalType": "uint256",
          "name": "_startPrice",
          "type": "uint256"
        },
        {
          "internalType": "address",
          "name": "_nftAddress",
          "type": "address"
        },
        {
          "internalType": "uint256",
          "name": "_tokenId",
          "type": "uint256"
        }
      ],
      "name": "createAuction",
      "outputs": [
        {
          "internalType": "bool",
          "name": "",
          "type": "bool"
        }
      ],
      "stateMutability": "nonpayable",
      "type": "function"
    },
    {
      "inputs": [
        {
          "internalType": "address[]",
          "name": "_auctionsList",
          "type": "address[]"
        }
      ],
      "name": "getAuctionInfo",
      "outputs": [
        {
          "internalType": "uint256[]",
          "name": "directBuy",
          "type": "uint256[]"
        },
        {
          "internalType": "address[]",
          "name": "owner",
          "type": "address[]"
        },
        {
          "internalType": "uint256[]",
          "name": "highestBid",
          "type": "uint256[]"
        },
        {
          "internalType": "uint256[]",
          "name": "tokenIds",
          "type": "uint256[]"
        },
        {
          "internalType": "uint256[]",
          "name": "endTime",
          "type": "uint256[]"
        },
        {
          "internalType": "uint256[]",
          "name": "startPrice",
          "type": "uint256[]"
        },
        {
          "internalType": "uint256[]",
          "name": "auctionState",
          "type": "uint256[]"
        }
      ],
      "stateMutability": "view",
      "type": "function"
    },
    {
      "inputs": [],
      "name": "getAuctions",
      "outputs": [
        {
          "internalType": "address[]",
          "name": "_auctions",
          "type": "address[]"
        }
      ],
      "stateMutability": "view",
      "type": "function"
    }
  ],
  "bytecode": "0x608060405234801561001057600080fd5b506121ab806100206000396000f3fe608060405234801561001057600080fd5b506004361061004c5760003560e01c8063280126061461005157806331adcedc146100dd578063571a26a01461035b578063d7c06919146103b3575b600080fd5b6100c5600480360360c081101561006757600080fd5b8101908080359060200190929190803590602001909291908035906020019092919080359060200190929190803573ffffffffffffffffffffffffffffffffffffffff16906020019092919080359060200190929190505050610412565b60405180821515815260200191505060405180910390f35b610154600480360360208110156100f357600080fd5b810190808035906020019064010000000081111561011057600080fd5b82018360208201111561012257600080fd5b8035906020019184602083028401116401000000008311171561014457600080fd5b90919293919293905050506105f4565b604051808060200180602001806020018060200180602001806020018060200188810388528f818151815260200191508051906020019060200280838360005b838110156101af578082015181840152602081019050610194565b5050505090500188810387528e818151815260200191508051906020019060200280838360005b838110156101f15780820151818401526020810190506101d6565b5050505090500188810386528d818151815260200191508051906020019060200280838360005b83811015610233578082015181840152602081019050610218565b5050505090500188810385528c818151815260200191508051906020019060200280838360005b8381101561027557808201518184015260208101905061025a565b5050505090500188810384528b818151815260200191508051906020019060200280838360005b838110156102b757808201518184015260208101905061029c565b5050505090500188810383528a818151815260200191508051906020019060200280838360005b838110156102f95780820151818401526020810190506102de565b50505050905001888103825289818151815260200191508051906020019060200280838360005b8381101561033b578082015181840152602081019050610320565b505050509050019e50505050505050505050505050505060405180910390f35b6103876004803603602081101561037157600080fd5b8101908080359060200190929190505050610e08565b604051808273ffffffffffffffffffffffffffffffffffffffff16815260200191505060405180910390f35b6103bb610e3b565b6040518080602001828103825283818151815260200191508051906020019060200280838360005b838110156103fe5780820151818401526020810190506103e3565b505050509050019250505060405180910390f35b600080851161042057600080fd5b84841061042c57600080fd5b61012c871161043a57600080fd5b600080549050600080815480929190600101919050555060003389898989898960405161046690610f20565b808873ffffffffffffffffffffffffffffffffffffffff1681526020018781526020018681526020018581526020018481526020018373ffffffffffffffffffffffffffffffffffffffff168152602001828152602001975050505050505050604051809103906000f0801580156104e2573d6000803e3d6000fd5b50905060008590508073ffffffffffffffffffffffffffffffffffffffff166323b872dd3384886040518463ffffffff1660e01b8152600401808473ffffffffffffffffffffffffffffffffffffffff1681526020018373ffffffffffffffffffffffffffffffffffffffff1681526020018281526020019350505050600060405180830381600087803b15801561057957600080fd5b505af115801561058d573d6000803e3d6000fd5b50505050816001600085815260200190815260200160002060006101000a81548173ffffffffffffffffffffffffffffffffffffffff021916908373ffffffffffffffffffffffffffffffffffffffff160217905550600193505050509695505050505050565b60608060608060608060608888905067ffffffffffffffff8111801561061957600080fd5b506040519080825280602002602001820160405280156106485781602001602082028036833780820191505090505b5096508888905067ffffffffffffffff8111801561066557600080fd5b506040519080825280602002602001820160405280156106945781602001602082028036833780820191505090505b5095508888905067ffffffffffffffff811180156106b157600080fd5b506040519080825280602002602001820160405280156106e05781602001602082028036833780820191505090505b5094508888905067ffffffffffffffff811180156106fd57600080fd5b5060405190808252806020026020018201604052801561072c5781602001602082028036833780820191505090505b5093508888905067ffffffffffffffff8111801561074957600080fd5b506040519080825280602002602001820160405280156107785781602001602082028036833780820191505090505b5092508888905067ffffffffffffffff8111801561079557600080fd5b506040519080825280602002602001820160405280156107c45781602001602082028036833780820191505090505b5091508888905067ffffffffffffffff811180156107e157600080fd5b506040519080825280602002602001820160405280156108105781602001602082028036833780820191505090505b50905060005b89899050811015610dfb576001600082815260200190815260200160002060009054906101000a900473ffffffffffffffffffffffffffffffffffffffff1673ffffffffffffffffffffffffffffffffffffffff1663700cdab16040518163ffffffff1660e01b815260040160206040518083038186803b15801561089a57600080fd5b505afa1580156108ae573d6000803e3d6000fd5b505050506040513d60208110156108c457600080fd5b81019080805190602001909291905050508882815181106108e157fe5b6020026020010181815250506001600082815260200190815260200160002060009054906101000a900473ffffffffffffffffffffffffffffffffffffffff1673ffffffffffffffffffffffffffffffffffffffff166302d05d3f6040518163ffffffff1660e01b815260040160206040518083038186803b15801561096657600080fd5b505afa15801561097a573d6000803e3d6000fd5b505050506040513d602081101561099057600080fd5b81019080805190602001909291905050508782815181106109ad57fe5b602002602001019073ffffffffffffffffffffffffffffffffffffffff16908173ffffffffffffffffffffffffffffffffffffffff16815250506001600082815260200190815260200160002060009054906101000a900473ffffffffffffffffffffffffffffffffffffffff1673ffffffffffffffffffffffffffffffffffffffff166374b11d8a6040518163ffffffff1660e01b815260040160206040518083038186803b158015610a6057600080fd5b505afa158015610a74573d6000803e3d6000fd5b505050506040513d6020811015610a8a57600080fd5b8101908080519060200190929190505050868281518110610aa757fe5b6020026020010181815250506001600082815260200190815260200160002060009054906101000a900473ffffffffffffffffffffffffffffffffffffffff1673ffffffffffffffffffffffffffffffffffffffff166317d70f7c6040518163ffffffff1660e01b815260040160206040518083038186803b158015610b2c57600080fd5b505afa158015610b40573d6000803e3d6000fd5b505050506040513d6020811015610b5657600080fd5b8101908080519060200190929190505050858281518110610b7357fe5b6020026020010181815250506001600082815260200190815260200160002060009054906101000a900473ffffffffffffffffffffffffffffffffffffffff1673ffffffffffffffffffffffffffffffffffffffff16633197cbb66040518163ffffffff1660e01b815260040160206040518083038186803b158015610bf857600080fd5b505afa158015610c0c573d6000803e3d6000fd5b505050506040513d6020811015610c2257600080fd5b8101908080519060200190929190505050848281518110610c3f57fe5b6020026020010181815250506001600082815260200190815260200160002060009054906101000a900473ffffffffffffffffffffffffffffffffffffffff1673ffffffffffffffffffffffffffffffffffffffff1663f1a9af896040518163ffffffff1660e01b815260040160206040518083038186803b158015610cc457600080fd5b505afa158015610cd8573d6000803e3d6000fd5b505050506040513d6020811015610cee57600080fd5b8101908080519060200190929190505050838281518110610d0b57fe5b6020026020010181815250506001600082815260200190815260200160002060009054906101000a900473ffffffffffffffffffffffffffffffffffffffff1673ffffffffffffffffffffffffffffffffffffffff166308bfc3006040518163ffffffff1660e01b815260040160206040518083038186803b158015610d9057600080fd5b505afa158015610da4573d6000803e3d6000fd5b505050506040513d6020811015610dba57600080fd5b81019080805190602001909291905050506003811115610dd657fe5b828281518110610de257fe5b6020026020010181815250508080600101915050610816565b5092959891949750929550565b60016020528060005260406000206000915054906101000a900473ffffffffffffffffffffffffffffffffffffffff1681565b606060005467ffffffffffffffff81118015610e5657600080fd5b50604051908082528060200260200182016040528015610e855781602001602082028036833780820191505090505b50905060005b600054811015610f1c576001600082815260200190815260200160002060009054906101000a900473ffffffffffffffffffffffffffffffffffffffff16828281518110610ed557fe5b602002602001019073ffffffffffffffffffffffffffffffffffffffff16908173ffffffffffffffffffffffffffffffffffffffff16815250508080600101915050610e8b565b5090565b61124880610f2e8339019056fe608060405234801561001057600080fd5b50604051611248380380611248833981810160405260e081101561003357600080fd5b810190808051906020019092919080519060200190929190805190602001909291908051906020019092919080519060200190929190805190602001909291908051906020019092919050505086600460006101000a81548173ffffffffffffffffffffffffffffffffffffffff021916908373ffffffffffffffffffffffffffffffffffffffff16021790555085420160008190555042600181905550846008819055508360098190555082600a8190555081600c60006101000a81548173ffffffffffffffffffffffffffffffffffffffff021916908373ffffffffffffffffffffffffffffffffffffffff16021790555081600b60006101000a81548173ffffffffffffffffffffffffffffffffffffffff021916908373ffffffffffffffffffffffffffffffffffffffff1602179055508060068190555086600360006101000a81548173ffffffffffffffffffffffffffffffffffffffff021916908373ffffffffffffffffffffffffffffffffffffffff16021790555050505050505050611082806101c66000396000f3fe6080604052600436106101145760003560e01c806374b11d8a116100a0578063b5bc959111610064578063b5bc95911461047a578063ca628c78146104bb578063ecfc7ecc146104e8578063f1a9af8914610508578063f9381d531461053357610114565b806374b11d8a1461039f57806378e97925146103ca5780638afcb14d146103f55780638fa8b7901461042057806395ee12211461044d57610114565b80633197cbb6116100e75780633197cbb6146101e85780634423c5f1146102135780634f50ef531461027f5780635bf8633a14610333578063700cdab11461037457610114565b806302d05d3f1461011957806308bfc3001461015a57806317d70f7c1461019057806324600fc3146101bb575b600080fd5b34801561012557600080fd5b5061012e610560565b604051808273ffffffffffffffffffffffffffffffffffffffff16815260200191505060405180910390f35b34801561016657600080fd5b5061016f610586565b6040518082600381111561017f57fe5b815260200191505060405180910390f35b34801561019c57600080fd5b506101a56105de565b6040518082815260200191505060405180910390f35b3480156101c757600080fd5b506101d06105e4565b60405180821515815260200191505060405180910390f35b3480156101f457600080fd5b506101fd610756565b6040518082815260200191505060405180910390f35b34801561021f57600080fd5b5061024c6004803603602081101561023657600080fd5b810190808035906020019092919050505061075c565b604051808373ffffffffffffffffffffffffffffffffffffffff1681526020018281526020019250505060405180910390f35b34801561028b57600080fd5b506102946107ad565b604051808060200180602001838103835285818151815260200191508051906020019060200280838360005b838110156102db5780820151818401526020810190506102c0565b50505050905001838103825284818151815260200191508051906020019060200280838360005b8381101561031d578082015181840152602081019050610302565b5050505090500194505050505060405180910390f35b34801561033f57600080fd5b50610348610936565b604051808273ffffffffffffffffffffffffffffffffffffffff16815260200191505060405180910390f35b34801561038057600080fd5b5061038961095c565b6040518082815260200191505060405180910390f35b3480156103ab57600080fd5b506103b4610962565b6040518082815260200191505060405180910390f35b3480156103d657600080fd5b506103df610968565b6040518082815260200191505060405180910390f35b34801561040157600080fd5b5061040a61096e565b6040518082815260200191505060405180910390f35b34801561042c57600080fd5b50610435610974565b60405180821515815260200191505060405180910390f35b34801561045957600080fd5b50610462610b44565b60405180821515815260200191505060405180910390f35b34801561048657600080fd5b5061048f610b57565b604051808273ffffffffffffffffffffffffffffffffffffffff16815260200191505060405180910390f35b3480156104c757600080fd5b506104d0610b7d565b60405180821515815260200191505060405180910390f35b6104f0610d89565b60405180821515815260200191505060405180910390f35b34801561051457600080fd5b5061051d611033565b6040518082815260200191505060405180910390f35b34801561053f57600080fd5b50610548611039565b60405180821515815260200191505060405180910390f35b600460009054906101000a900473ffffffffffffffffffffffffffffffffffffffff1681565b6000600760009054906101000a900460ff16156105a657600190506105db565b600760019054906101000a900460ff16156105c457600390506105db565b60005442106105d657600290506105db565b600090505b90565b60065481565b6000600260038111156105f357fe5b6105fb610586565b600381111561060657fe5b148061062e575060038081111561061957fe5b610621610586565b600381111561062c57fe5b145b61063757600080fd5b600460009054906101000a900473ffffffffffffffffffffffffffffffffffffffff1673ffffffffffffffffffffffffffffffffffffffff163373ffffffffffffffffffffffffffffffffffffffff161461069157600080fd5b600460009054906101000a900473ffffffffffffffffffffffffffffffffffffffff1673ffffffffffffffffffffffffffffffffffffffff166108fc6002549081150290604051600060405180830381858888f193505050501580156106fb573d6000803e3d6000fd5b507f21901fa892c430ea8bd38b9390225ac8e67eac75ee10ffba16feefc539a288f933600254604051808373ffffffffffffffffffffffffffffffffffffffff1681526020018281526020019250505060405180910390a190565b60005481565b6005818154811061076957fe5b90600052602060002090600202016000915090508060000160009054906101000a900473ffffffffffffffffffffffffffffffffffffffff16908060010154905082565b606080606060058054905067ffffffffffffffff811180156107ce57600080fd5b506040519080825280602002602001820160405280156107fd5781602001602082028036833780820191505090505b509050606060058054905067ffffffffffffffff8111801561081e57600080fd5b5060405190808252806020026020018201604052801561084d5781602001602082028036833780820191505090505b50905060005b600580549050811015610929576005818154811061086d57fe5b906000526020600020906002020160000160009054906101000a900473ffffffffffffffffffffffffffffffffffffffff168382815181106108ab57fe5b602002602001019073ffffffffffffffffffffffffffffffffffffffff16908173ffffffffffffffffffffffffffffffffffffffff1681525050600581815481106108f257fe5b90600052602060002090600202016001015482828151811061091057fe5b6020026020010181815250508080600101915050610853565b5081819350935050509091565b600b60009054906101000a900473ffffffffffffffffffffffffffffffffffffffff1681565b60095481565b60025481565b60015481565b60085481565b6000600460009054906101000a900473ffffffffffffffffffffffffffffffffffffffff1673ffffffffffffffffffffffffffffffffffffffff163373ffffffffffffffffffffffffffffffffffffffff16146109d057600080fd5b600060038111156109dd57fe5b6109e5610586565b60038111156109f057fe5b146109fa57600080fd5b600060025414610a0957600080fd5b6001600760006101000a81548160ff021916908315150217905550600c60009054906101000a900473ffffffffffffffffffffffffffffffffffffffff1673ffffffffffffffffffffffffffffffffffffffff166323b872dd30600460009054906101000a900473ffffffffffffffffffffffffffffffffffffffff166006546040518463ffffffff1660e01b8152600401808473ffffffffffffffffffffffffffffffffffffffff1681526020018373ffffffffffffffffffffffffffffffffffffffff1681526020018281526020019350505050600060405180830381600087803b158015610af957600080fd5b505af1158015610b0d573d6000803e3d6000fd5b505050507fa5fb31e47bd1eca58bf14a3312d5e6aeafdc4ee787c8ed348c15c2b092324d9360405160405180910390a16001905090565b600760009054906101000a900460ff1681565b600360009054906101000a900473ffffffffffffffffffffffffffffffffffffffff1681565b600060026003811115610b8c57fe5b610b94610586565b6003811115610b9f57fe5b1480610bc75750600380811115610bb257fe5b610bba610586565b6003811115610bc557fe5b145b610bd057600080fd5b600360009054906101000a900473ffffffffffffffffffffffffffffffffffffffff1673ffffffffffffffffffffffffffffffffffffffff163373ffffffffffffffffffffffffffffffffffffffff1614610c2a57600080fd5b600c60009054906101000a900473ffffffffffffffffffffffffffffffffffffffff1673ffffffffffffffffffffffffffffffffffffffff166323b872dd30600360009054906101000a900473ffffffffffffffffffffffffffffffffffffffff166006546040518463ffffffff1660e01b8152600401808473ffffffffffffffffffffffffffffffffffffffff1681526020018373ffffffffffffffffffffffffffffffffffffffff1681526020018281526020019350505050600060405180830381600087803b158015610cff57600080fd5b505af1158015610d13573d6000803e3d6000fd5b505050507f5c4c9f6f3ba19404ec4644b1234fc02b326f96e961a2d4e4667694441444f345600360009054906101000a900473ffffffffffffffffffffffffffffffffffffffff16604051808273ffffffffffffffffffffffffffffffffffffffff16815260200191505060405180910390a190565b60006005808054905010610d9c57600080fd5b600460009054906101000a900473ffffffffffffffffffffffffffffffffffffffff1673ffffffffffffffffffffffffffffffffffffffff163373ffffffffffffffffffffffffffffffffffffffff161415610df757600080fd5b60006003811115610e0457fe5b610e0c610586565b6003811115610e1757fe5b14610e2157600080fd5b600a543411610e2f57600080fd5b600854600254013411610e4157600080fd5b6000600360009054906101000a900473ffffffffffffffffffffffffffffffffffffffff169050600060025490503460028190555033600360006101000a81548173ffffffffffffffffffffffffffffffffffffffff021916908373ffffffffffffffffffffffffffffffffffffffff1602179055506009543410610edc576001600760016101000a81548160ff0219169083151502179055505b600560405180604001604052803373ffffffffffffffffffffffffffffffffffffffff16815260200134815250908060018154018082558091505060019003906000526020600020906002020160009091909190915060008201518160000160006101000a81548173ffffffffffffffffffffffffffffffffffffffff021916908373ffffffffffffffffffffffffffffffffffffffff16021790555060208201518160010155505060008114610fd5578173ffffffffffffffffffffffffffffffffffffffff166108fc829081150290604051600060405180830381858888f19350505050158015610fd3573d6000803e3d6000fd5b505b7fdd0b6c6a77960e2066c96171b4d7ac9e8b4c184011f38544afa36a5bb63ec59f3334604051808373ffffffffffffffffffffffffffffffffffffffff1681526020018281526020019250505060405180910390a160019250505090565b600a5481565b600760019054906101000a900460ff168156fea264697066735822122032ba3223a63a3fda608cefde67dee842ed12a36752af8ca7b232feb9f894f0ad64736f6c63430007000033a264697066735822122029f1f1a6b5af33938d209fa7beb070d1022026de9bbf841929a852eb5ecd5bb464736f6c63430007000033",
  "linkReferences": {},
  "deployedLinkReferences": {}
}